{
  "_format": "hh-sol-artifact-1",
  "contractName": "Box",
  "sourceName": "contracts/Box.sol",
  "abi": [
    {
      "inputs": [],
      "name": "ApprovalCallerNotOwnerNorApproved",
      "type": "error"
    },
    {
      "inputs": [],
      "name": "ApprovalQueryForNonexistentToken",
      "type": "error"
    },
    {
      "inputs": [],
      "name": "ApprovalToCurrentOwner",
      "type": "error"
    },
    {
      "inputs": [],
      "name": "ApproveToCaller",
      "type": "error"
    },
    {
      "inputs": [],
      "name": "BalanceQueryForZeroAddress",
      "type": "error"
    },
    {
      "inputs": [],
      "name": "MintToZeroAddress",
      "type": "error"
    },
    {
      "inputs": [],
      "name": "MintZeroQuantity",
      "type": "error"
    },
    {
      "inputs": [],
      "name": "OwnerQueryForNonexistentToken",
      "type": "error"
    },
    {
      "inputs": [],
      "name": "TransferCallerNotOwnerNorApproved",
      "type": "error"
    },
    {
      "inputs": [],
      "name": "TransferFromIncorrectOwner",
      "type": "error"
    },
    {
      "inputs": [],
      "name": "TransferToNonERC721ReceiverImplementer",
      "type": "error"
    },
    {
      "inputs": [],
      "name": "TransferToZeroAddress",
      "type": "error"
    },
    {
      "anonymous": false,
      "inputs": [
        {
          "indexed": true,
          "internalType": "address",
          "name": "owner",
          "type": "address"
        },
        {
          "indexed": true,
          "internalType": "address",
          "name": "approved",
          "type": "address"
        },
        {
          "indexed": true,
          "internalType": "uint256",
          "name": "tokenId",
          "type": "uint256"
        }
      ],
      "name": "Approval",
      "type": "event"
    },
    {
      "anonymous": false,
      "inputs": [
        {
          "indexed": true,
          "internalType": "address",
          "name": "owner",
          "type": "address"
        },
        {
          "indexed": true,
          "internalType": "address",
          "name": "operator",
          "type": "address"
        },
        {
          "indexed": false,
          "internalType": "bool",
          "name": "approved",
          "type": "bool"
        }
      ],
      "name": "ApprovalForAll",
      "type": "event"
    },
    {
      "anonymous": false,
      "inputs": [
        {
          "indexed": true,
          "internalType": "address",
          "name": "previousOwner",
          "type": "address"
        },
        {
          "indexed": true,
          "internalType": "address",
          "name": "newOwner",
          "type": "address"
        }
      ],
      "name": "OwnershipTransferred",
      "type": "event"
    },
    {
      "anonymous": false,
      "inputs": [
        {
          "indexed": true,
          "internalType": "address",
          "name": "from",
          "type": "address"
        },
        {
          "indexed": true,
          "internalType": "address",
          "name": "to",
          "type": "address"
        },
        {
          "indexed": true,
          "internalType": "uint256",
          "name": "tokenId",
          "type": "uint256"
        }
      ],
      "name": "Transfer",
      "type": "event"
    },
    {
      "inputs": [],
      "name": "MAX_PUBLIC_MINT",
      "outputs": [
        {
          "internalType": "uint256",
          "name": "",
          "type": "uint256"
        }
      ],
      "stateMutability": "view",
      "type": "function"
    },
    {
      "inputs": [],
      "name": "MAX_SUPPLY",
      "outputs": [
        {
          "internalType": "uint256",
          "name": "",
          "type": "uint256"
        }
      ],
      "stateMutability": "view",
      "type": "function"
    },
    {
      "inputs": [],
      "name": "MAX_WHITELIST_MINT",
      "outputs": [
        {
          "internalType": "uint256",
          "name": "",
          "type": "uint256"
        }
      ],
      "stateMutability": "view",
      "type": "function"
    },
    {
      "inputs": [],
      "name": "PUBLIC_SALE_PRICE",
      "outputs": [
        {
          "internalType": "uint256",
          "name": "",
          "type": "uint256"
        }
      ],
      "stateMutability": "view",
      "type": "function"
    },
    {
      "inputs": [],
      "name": "WHITELIST_SALE_PRICE",
      "outputs": [
        {
          "internalType": "uint256",
          "name": "",
          "type": "uint256"
        }
      ],
      "stateMutability": "view",
      "type": "function"
    },
    {
      "inputs": [
        {
          "internalType": "address",
          "name": "to",
          "type": "address"
        },
        {
          "internalType": "uint256",
          "name": "tokenId",
          "type": "uint256"
        }
      ],
      "name": "approve",
      "outputs": [],
      "stateMutability": "nonpayable",
      "type": "function"
    },
    {
      "inputs": [
        {
          "internalType": "address",
          "name": "owner",
          "type": "address"
        }
      ],
      "name": "balanceOf",
      "outputs": [
        {
          "internalType": "uint256",
          "name": "",
          "type": "uint256"
        }
      ],
      "stateMutability": "view",
      "type": "function"
    },
    {
      "inputs": [
        {
          "internalType": "uint256",
          "name": "tokenId",
          "type": "uint256"
        }
      ],
      "name": "getApproved",
      "outputs": [
        {
          "internalType": "address",
          "name": "",
          "type": "address"
        }
      ],
      "stateMutability": "view",
      "type": "function"
    },
    {
      "inputs": [],
      "name": "getMerkleRoot",
      "outputs": [
        {
          "internalType": "bytes32",
          "name": "",
          "type": "bytes32"
        }
      ],
      "stateMutability": "view",
      "type": "function"
    },
    {
      "inputs": [],
      "name": "initialize",
      "outputs": [],
      "stateMutability": "nonpayable",
      "type": "function"
    },
    {
      "inputs": [
        {
          "internalType": "address",
          "name": "owner",
          "type": "address"
        },
        {
          "internalType": "address",
          "name": "operator",
          "type": "address"
        }
      ],
      "name": "isApprovedForAll",
      "outputs": [
        {
          "internalType": "bool",
          "name": "",
          "type": "bool"
        }
      ],
      "stateMutability": "view",
      "type": "function"
    },
    {
      "inputs": [],
      "name": "isRevealed",
      "outputs": [
        {
          "internalType": "bool",
          "name": "",
          "type": "bool"
        }
      ],
      "stateMutability": "view",
      "type": "function"
    },
    {
      "inputs": [
        {
          "internalType": "uint256",
          "name": "_quantity",
          "type": "uint256"
        }
      ],
      "name": "mint",
      "outputs": [],
      "stateMutability": "payable",
      "type": "function"
    },
    {
      "inputs": [],
      "name": "name",
      "outputs": [
        {
          "internalType": "string",
          "name": "",
          "type": "string"
        }
      ],
      "stateMutability": "view",
      "type": "function"
    },
    {
      "inputs": [],
      "name": "owner",
      "outputs": [
        {
          "internalType": "address",
          "name": "",
          "type": "address"
        }
      ],
      "stateMutability": "view",
      "type": "function"
    },
    {
      "inputs": [
        {
          "internalType": "uint256",
          "name": "tokenId",
          "type": "uint256"
        }
      ],
      "name": "ownerOf",
      "outputs": [
        {
          "internalType": "address",
          "name": "",
          "type": "address"
        }
      ],
      "stateMutability": "view",
      "type": "function"
    },
    {
      "inputs": [],
      "name": "pause",
      "outputs": [
        {
          "internalType": "bool",
          "name": "",
          "type": "bool"
        }
      ],
      "stateMutability": "view",
      "type": "function"
    },
    {
      "inputs": [],
      "name": "placeholderTokenUri",
      "outputs": [
        {
          "internalType": "string",
          "name": "",
          "type": "string"
        }
      ],
      "stateMutability": "view",
      "type": "function"
    },
    {
      "inputs": [],
      "name": "publicSale",
      "outputs": [
        {
          "internalType": "bool",
          "name": "",
          "type": "bool"
        }
      ],
      "stateMutability": "view",
      "type": "function"
    },
    {
      "inputs": [],
      "name": "renounceOwnership",
      "outputs": [],
      "stateMutability": "nonpayable",
      "type": "function"
    },
    {
      "inputs": [
        {
          "internalType": "address",
          "name": "from",
          "type": "address"
        },
        {
          "internalType": "address",
          "name": "to",
          "type": "address"
        },
        {
          "internalType": "uint256",
          "name": "tokenId",
          "type": "uint256"
        }
      ],
      "name": "safeTransferFrom",
      "outputs": [],
      "stateMutability": "nonpayable",
      "type": "function"
    },
    {
      "inputs": [
        {
          "internalType": "address",
          "name": "from",
          "type": "address"
        },
        {
          "internalType": "address",
          "name": "to",
          "type": "address"
        },
        {
          "internalType": "uint256",
          "name": "tokenId",
          "type": "uint256"
        },
        {
          "internalType": "bytes",
          "name": "_data",
          "type": "bytes"
        }
      ],
      "name": "safeTransferFrom",
      "outputs": [],
      "stateMutability": "nonpayable",
      "type": "function"
    },
    {
      "inputs": [
        {
          "internalType": "address",
          "name": "operator",
          "type": "address"
        },
        {
          "internalType": "bool",
          "name": "approved",
          "type": "bool"
        }
      ],
      "name": "setApprovalForAll",
      "outputs": [],
      "stateMutability": "nonpayable",
      "type": "function"
    },
    {
      "inputs": [
        {
          "internalType": "bytes32",
          "name": "_merkleRoot",
          "type": "bytes32"
        }
      ],
      "name": "setMerkleRoot",
      "outputs": [],
      "stateMutability": "nonpayable",
      "type": "function"
    },
    {
      "inputs": [
        {
          "internalType": "string",
          "name": "_placeholderTokenUri",
          "type": "string"
        }
      ],
      "name": "setPlaceHolderUri",
      "outputs": [],
      "stateMutability": "nonpayable",
      "type": "function"
    },
    {
      "inputs": [
        {
          "internalType": "string",
          "name": "_baseTokenUri",
          "type": "string"
        }
      ],
      "name": "setTokenUri",
      "outputs": [],
      "stateMutability": "nonpayable",
      "type": "function"
    },
    {
      "inputs": [
        {
          "internalType": "bytes4",
          "name": "interfaceId",
          "type": "bytes4"
        }
      ],
      "name": "supportsInterface",
      "outputs": [
        {
          "internalType": "bool",
          "name": "",
          "type": "bool"
        }
      ],
      "stateMutability": "view",
      "type": "function"
    },
    {
      "inputs": [],
      "name": "symbol",
      "outputs": [
        {
          "internalType": "string",
          "name": "",
          "type": "string"
        }
      ],
      "stateMutability": "view",
      "type": "function"
    },
    {
      "inputs": [],
      "name": "togglePause",
      "outputs": [],
      "stateMutability": "nonpayable",
      "type": "function"
    },
    {
      "inputs": [],
      "name": "togglePublicSale",
      "outputs": [],
      "stateMutability": "nonpayable",
      "type": "function"
    },
    {
      "inputs": [],
      "name": "toggleReveal",
      "outputs": [],
      "stateMutability": "nonpayable",
      "type": "function"
    },
    {
      "inputs": [],
      "name": "toggleWhiteListSale",
      "outputs": [],
      "stateMutability": "nonpayable",
      "type": "function"
    },
    {
      "inputs": [
        {
          "internalType": "uint256",
          "name": "tokenId",
          "type": "uint256"
        }
      ],
      "name": "tokenURI",
      "outputs": [
        {
          "internalType": "string",
          "name": "",
          "type": "string"
        }
      ],
      "stateMutability": "view",
      "type": "function"
    },
    {
      "inputs": [
        {
          "internalType": "address",
          "name": "",
          "type": "address"
        }
      ],
      "name": "totalPublicMint",
      "outputs": [
        {
          "internalType": "uint256",
          "name": "",
          "type": "uint256"
        }
      ],
      "stateMutability": "view",
      "type": "function"
    },
    {
      "inputs": [],
      "name": "totalSupply",
      "outputs": [
        {
          "internalType": "uint256",
          "name": "",
          "type": "uint256"
        }
      ],
      "stateMutability": "view",
      "type": "function"
    },
    {
      "inputs": [
        {
          "internalType": "address",
          "name": "",
          "type": "address"
        }
      ],
      "name": "totalWhitelistMint",
      "outputs": [
        {
          "internalType": "uint256",
          "name": "",
          "type": "uint256"
        }
      ],
      "stateMutability": "view",
      "type": "function"
    },
    {
      "inputs": [
        {
          "internalType": "address",
          "name": "from",
          "type": "address"
        },
        {
          "internalType": "address",
          "name": "to",
          "type": "address"
        },
        {
          "internalType": "uint256",
          "name": "tokenId",
          "type": "uint256"
        }
      ],
      "name": "transferFrom",
      "outputs": [],
      "stateMutability": "nonpayable",
      "type": "function"
    },
    {
      "inputs": [
        {
          "internalType": "address",
          "name": "newOwner",
          "type": "address"
        }
      ],
      "name": "transferOwnership",
      "outputs": [],
      "stateMutability": "nonpayable",
      "type": "function"
    },
    {
      "inputs": [],
      "name": "whiteListSale",
      "outputs": [
        {
          "internalType": "bool",
          "name": "",
          "type": "bool"
        }
      ],
      "stateMutability": "view",
      "type": "function"
    },
    {
      "inputs": [
        {
          "internalType": "bytes32[]",
          "name": "_merkleProof",
          "type": "bytes32[]"
        },
        {
          "internalType": "uint256",
          "name": "_quantity",
          "type": "uint256"
        }
      ],
      "name": "whitelistMint",
      "outputs": [],
      "stateMutability": "payable",
      "type": "function"
    },
    {
      "inputs": [],
      "name": "withdraw",
      "outputs": [],
      "stateMutability": "nonpayable",
      "type": "function"
    }
  ],
  "bytecode": "0x608060405234801561001057600080fd5b50614a2c806100206000396000f3fe6080604052600436106102465760003560e01c806365f1309711610139578063a0712d68116100b6578063c08dfd3c1161007a578063c08dfd3c14610806578063c4ae316814610831578063c87b56dd14610848578063e222c7f914610885578063e985e9c51461089c578063f2fde38b146108d957610246565b8063a0712d6814610744578063a22cb46514610760578063b0962c5314610789578063b88d4fde146107b2578063bc912e1a146107db57610246565b80638456cb59116100fd5780638456cb591461068157806386a173ee146106ac5780638bb64a8c146106d75780638da5cb5b146106ee57806395d89b411461071957610246565b806365f13097146105c257806370a08231146105ed578063715018a61461062a5780637cb64759146106415780638129fc1c1461066a57610246565b80632904e6d9116101c7578063495906571161018b57806349590657146104ed5780634cf5f7a41461051857806354214f69146105435780635b8ad4291461056e5780636352211e1461058557610246565b80632904e6d91461043b57806332cb6b0c1461045757806333bc1c5c146104825780633ccfd60b146104ad57806342842e0e146104c457610246565b8063081812fc1161020e578063081812fc14610344578063095ea7b31461038157806318160ddd146103aa5780631c16521c146103d557806323b872dd1461041257610246565b806301ffc9a71461024b5780630345e3cb146102885780630675b7c6146102c557806306fdde03146102ee57806307e89ec014610319575b600080fd5b34801561025757600080fd5b50610272600480360381019061026d919061392a565b610902565b60405161027f9190613e84565b60405180910390f35b34801561029457600080fd5b506102af60048036038101906102aa9190613706565b6109e4565b6040516102bc91906140bc565b60405180910390f35b3480156102d157600080fd5b506102ec60048036038101906102e7919061397c565b6109fc565b005b3480156102fa57600080fd5b50610303610a92565b6040516103109190613eba565b60405180910390f35b34801561032557600080fd5b5061032e610b24565b60405161033b91906140bc565b60405180910390f35b34801561035057600080fd5b5061036b600480360381019061036691906139bd565b610b2f565b6040516103789190613e1d565b60405180910390f35b34801561038d57600080fd5b506103a860048036038101906103a39190613871565b610bab565b005b3480156103b657600080fd5b506103bf610cb6565b6040516103cc91906140bc565b60405180910390f35b3480156103e157600080fd5b506103fc60048036038101906103f79190613706565b610ccd565b60405161040991906140bc565b60405180910390f35b34801561041e57600080fd5b506104396004803603810190610434919061376b565b610ce5565b005b610455600480360381019061045091906138ad565b610cf5565b005b34801561046357600080fd5b5061046c610fc8565b60405161047991906140bc565b60405180910390f35b34801561048e57600080fd5b50610497610fce565b6040516104a49190613e84565b60405180910390f35b3480156104b957600080fd5b506104c2610fe1565b005b3480156104d057600080fd5b506104eb60048036038101906104e6919061376b565b6110a6565b005b3480156104f957600080fd5b506105026110c6565b60405161050f9190613e9f565b60405180910390f35b34801561052457600080fd5b5061052d6110d0565b60405161053a9190613eba565b60405180910390f35b34801561054f57600080fd5b5061055861115e565b6040516105659190613e84565b60405180910390f35b34801561057a57600080fd5b50610583611171565b005b34801561059157600080fd5b506105ac60048036038101906105a791906139bd565b611219565b6040516105b99190613e1d565b60405180910390f35b3480156105ce57600080fd5b506105d761122f565b6040516105e491906140bc565b60405180910390f35b3480156105f957600080fd5b50610614600480360381019061060f9190613706565b611234565b60405161062191906140bc565b60405180910390f35b34801561063657600080fd5b5061063f611304565b005b34801561064d57600080fd5b5061066860048036038101906106639190613901565b61138c565b005b34801561067657600080fd5b5061067f611412565b005b34801561068d57600080fd5b50610696611572565b6040516106a39190613e84565b60405180910390f35b3480156106b857600080fd5b506106c1611585565b6040516106ce9190613e84565b60405180910390f35b3480156106e357600080fd5b506106ec611598565b005b3480156106fa57600080fd5b50610703611640565b6040516107109190613e1d565b60405180910390f35b34801561072557600080fd5b5061072e61166a565b60405161073b9190613eba565b60405180910390f35b61075e600480360381019061075991906139bd565b6116fc565b005b34801561076c57600080fd5b5061078760048036038101906107829190613835565b611956565b005b34801561079557600080fd5b506107b060048036038101906107ab919061397c565b611ace565b005b3480156107be57600080fd5b506107d960048036038101906107d491906137ba565b611b64565b005b3480156107e757600080fd5b506107f0611be0565b6040516107fd91906140bc565b60405180910390f35b34801561081257600080fd5b5061081b611beb565b60405161082891906140bc565b60405180910390f35b34801561083d57600080fd5b50610846611bf0565b005b34801561085457600080fd5b5061086f600480360381019061086a91906139bd565b611c98565b60405161087c9190613eba565b60405180910390f35b34801561089157600080fd5b5061089a611e19565b005b3480156108a857600080fd5b506108c360048036038101906108be919061372f565b611ec1565b6040516108d09190613e84565b60405180910390f35b3480156108e557600080fd5b5061090060048036038101906108fb9190613706565b611f55565b005b60007f80ac58cd000000000000000000000000000000000000000000000000000000007bffffffffffffffffffffffffffffffffffffffffffffffffffffffff1916827bffffffffffffffffffffffffffffffffffffffffffffffffffffffff191614806109cd57507f5b5e139f000000000000000000000000000000000000000000000000000000007bffffffffffffffffffffffffffffffffffffffffffffffffffffffff1916827bffffffffffffffffffffffffffffffffffffffffffffffffffffffff1916145b806109dd57506109dc8261204d565b5b9050919050565b60a46020528060005260406000206000915090505481565b610a046120b7565b73ffffffffffffffffffffffffffffffffffffffff16610a22611640565b73ffffffffffffffffffffffffffffffffffffffff1614610a78576040517f08c379a0000000000000000000000000000000000000000000000000000000008152600401610a6f90613ffc565b60405180910390fd5b80609f9080519060200190610a8e92919061343c565b5050565b606060678054610aa1906143c2565b80601f0160208091040260200160405190810160405280929190818152602001828054610acd906143c2565b8015610b1a5780601f10610aef57610100808354040283529160200191610b1a565b820191906000526020600020905b815481529060010190602001808311610afd57829003601f168201915b5050505050905090565b661ff973cafa800081565b6000610b3a826120bf565b610b70576040517fcf4700e400000000000000000000000000000000000000000000000000000000815260040160405180910390fd5b606b600083815260200190815260200160002060009054906101000a900473ffffffffffffffffffffffffffffffffffffffff169050919050565b6000610bb682611219565b90508073ffffffffffffffffffffffffffffffffffffffff168373ffffffffffffffffffffffffffffffffffffffff161415610c1e576040517f943f7b8c00000000000000000000000000000000000000000000000000000000815260040160405180910390fd5b8073ffffffffffffffffffffffffffffffffffffffff16610c3d6120b7565b73ffffffffffffffffffffffffffffffffffffffff1614158015610c6f5750610c6d81610c686120b7565b611ec1565b155b15610ca6576040517fcfb3b94200000000000000000000000000000000000000000000000000000000815260040160405180910390fd5b610cb183838361210d565b505050565b6000610cc06121bf565b6066546065540303905090565b60a36020528060005260406000206000915090505481565b610cf08383836121c4565b505050565b3373ffffffffffffffffffffffffffffffffffffffff163273ffffffffffffffffffffffffffffffffffffffff1614610d63576040517f08c379a0000000000000000000000000000000000000000000000000000000008152600401610d5a90613f5c565b60405180910390fd5b60a160029054906101000a900460ff16610db2576040517f08c379a0000000000000000000000000000000000000000000000000000000008152600401610da990613fdc565b60405180910390fd5b611e6181610dbe610cb6565b610dc891906141ed565b1115610e09576040517f08c379a0000000000000000000000000000000000000000000000000000000008152600401610e0090613f9c565b60405180910390fd5b60038160a460003373ffffffffffffffffffffffffffffffffffffffff1673ffffffffffffffffffffffffffffffffffffffff16815260200190815260200160002054610e5691906141ed565b1115610e97576040517f08c379a0000000000000000000000000000000000000000000000000000000008152600401610e8e90613f3c565b60405180910390fd5b8066071afd498d0000610eaa9190614274565b341015610eec576040517f08c379a0000000000000000000000000000000000000000000000000000000008152600401610ee39061407c565b60405180910390fd5b600033604051602001610eff9190613dbc565b604051602081830303815290604052805190602001209050610f248360a2548361267a565b610f63576040517f08c379a0000000000000000000000000000000000000000000000000000000008152600401610f5a90613fbc565b60405180910390fd5b8160a460003373ffffffffffffffffffffffffffffffffffffffff1673ffffffffffffffffffffffffffffffffffffffff1681526020019081526020016000206000828254610fb291906141ed565b92505081905550610fc33383612691565b505050565b611e6181565b60a160019054906101000a900460ff1681565b610fe96120b7565b73ffffffffffffffffffffffffffffffffffffffff16611007611640565b73ffffffffffffffffffffffffffffffffffffffff161461105d576040517f08c379a000000000000000000000000000000000000000000000000000000000815260040161105490613ffc565b60405180910390fd5b3373ffffffffffffffffffffffffffffffffffffffff166108fc479081150290604051600060405180830381858888f193505050501580156110a3573d6000803e3d6000fd5b50565b6110c183838360405180602001604052806000815250611b64565b505050565b600060a254905090565b60a080546110dd906143c2565b80601f0160208091040260200160405190810160405280929190818152602001828054611109906143c2565b80156111565780601f1061112b57610100808354040283529160200191611156565b820191906000526020600020905b81548152906001019060200180831161113957829003601f168201915b505050505081565b60a160009054906101000a900460ff1681565b6111796120b7565b73ffffffffffffffffffffffffffffffffffffffff16611197611640565b73ffffffffffffffffffffffffffffffffffffffff16146111ed576040517f08c379a00000000000000000000000000000000000000000000000000000000081526004016111e490613ffc565b60405180910390fd5b60a160009054906101000a900460ff161560a160006101000a81548160ff021916908315150217905550565b6000611224826126af565b600001519050919050565b600a81565b60008073ffffffffffffffffffffffffffffffffffffffff168273ffffffffffffffffffffffffffffffffffffffff16141561129c576040517f8f4eb60400000000000000000000000000000000000000000000000000000000815260040160405180910390fd5b606a60008373ffffffffffffffffffffffffffffffffffffffff1673ffffffffffffffffffffffffffffffffffffffff16815260200190815260200160002060000160009054906101000a900467ffffffffffffffff1667ffffffffffffffff169050919050565b61130c6120b7565b73ffffffffffffffffffffffffffffffffffffffff1661132a611640565b73ffffffffffffffffffffffffffffffffffffffff1614611380576040517f08c379a000000000000000000000000000000000000000000000000000000000815260040161137790613ffc565b60405180910390fd5b61138a600061293e565b565b6113946120b7565b73ffffffffffffffffffffffffffffffffffffffff166113b2611640565b73ffffffffffffffffffffffffffffffffffffffff1614611408576040517f08c379a00000000000000000000000000000000000000000000000000000000081526004016113ff90613ffc565b60405180910390fd5b8060a28190555050565b600060019054906101000a900460ff1661143a5760008054906101000a900460ff1615611443565b611442612a04565b5b611482576040517f08c379a000000000000000000000000000000000000000000000000000000000815260040161147990613f7c565b60405180910390fd5b60008060019054906101000a900460ff1615905080156114d2576001600060016101000a81548160ff02191690831515021790555060016000806101000a81548160ff0219169083151502179055505b6115466040518060400160405280600381526020017f426f7800000000000000000000000000000000000000000000000000000000008152506040518060400160405280600381526020017f424f580000000000000000000000000000000000000000000000000000000000815250612a15565b61154e612a82565b801561156f5760008060016101000a81548160ff0219169083151502179055505b50565b60a160039054906101000a900460ff1681565b60a160029054906101000a900460ff1681565b6115a06120b7565b73ffffffffffffffffffffffffffffffffffffffff166115be611640565b73ffffffffffffffffffffffffffffffffffffffff1614611614576040517f08c379a000000000000000000000000000000000000000000000000000000000815260040161160b90613ffc565b60405180910390fd5b60a160029054906101000a900460ff161560a160026101000a81548160ff021916908315150217905550565b6000606d60009054906101000a900473ffffffffffffffffffffffffffffffffffffffff16905090565b606060688054611679906143c2565b80601f01602080910402602001604051908101604052809291908181526020018280546116a5906143c2565b80156116f25780601f106116c7576101008083540402835291602001916116f2565b820191906000526020600020905b8154815290600101906020018083116116d557829003601f168201915b5050505050905090565b3373ffffffffffffffffffffffffffffffffffffffff163273ffffffffffffffffffffffffffffffffffffffff161461176a576040517f08c379a000000000000000000000000000000000000000000000000000000000815260040161176190613f5c565b60405180910390fd5b60a160019054906101000a900460ff166117b9576040517f08c379a00000000000000000000000000000000000000000000000000000000081526004016117b090613edc565b60405180910390fd5b611e61816117c5610cb6565b6117cf91906141ed565b1115611810576040517f08c379a00000000000000000000000000000000000000000000000000000000081526004016118079061409c565b60405180910390fd5b600a8160a360003373ffffffffffffffffffffffffffffffffffffffff1673ffffffffffffffffffffffffffffffffffffffff1681526020019081526020016000205461185d91906141ed565b111561189e576040517f08c379a000000000000000000000000000000000000000000000000000000000815260040161189590613f1c565b60405180910390fd5b80661ff973cafa80006118b19190614274565b3410156118f3576040517f08c379a00000000000000000000000000000000000000000000000000000000081526004016118ea9061405c565b60405180910390fd5b8060a360003373ffffffffffffffffffffffffffffffffffffffff1673ffffffffffffffffffffffffffffffffffffffff168152602001908152602001600020600082825461194291906141ed565b925050819055506119533382612691565b50565b61195e6120b7565b73ffffffffffffffffffffffffffffffffffffffff168273ffffffffffffffffffffffffffffffffffffffff1614156119c3576040517fb06307db00000000000000000000000000000000000000000000000000000000815260040160405180910390fd5b80606c60006119d06120b7565b73ffffffffffffffffffffffffffffffffffffffff1673ffffffffffffffffffffffffffffffffffffffff16815260200190815260200160002060008473ffffffffffffffffffffffffffffffffffffffff1673ffffffffffffffffffffffffffffffffffffffff16815260200190815260200160002060006101000a81548160ff0219169083151502179055508173ffffffffffffffffffffffffffffffffffffffff16611a7d6120b7565b73ffffffffffffffffffffffffffffffffffffffff167f17307eab39ab6107e8899845ad3d59bd9653f200f220920489ca2b5937696c3183604051611ac29190613e84565b60405180910390a35050565b611ad66120b7565b73ffffffffffffffffffffffffffffffffffffffff16611af4611640565b73ffffffffffffffffffffffffffffffffffffffff1614611b4a576040517f08c379a0000000000000000000000000000000000000000000000000000000008152600401611b4190613ffc565b60405180910390fd5b8060a09080519060200190611b6092919061343c565b5050565b611b6f8484846121c4565b611b8e8373ffffffffffffffffffffffffffffffffffffffff16612adb565b8015611ba35750611ba184848484612afe565b155b15611bda576040517fd1a57ed600000000000000000000000000000000000000000000000000000000815260040160405180910390fd5b50505050565b66071afd498d000081565b600381565b611bf86120b7565b73ffffffffffffffffffffffffffffffffffffffff16611c16611640565b73ffffffffffffffffffffffffffffffffffffffff1614611c6c576040517f08c379a0000000000000000000000000000000000000000000000000000000008152600401611c6390613ffc565b60405180910390fd5b60a160039054906101000a900460ff161560a160036101000a81548160ff021916908315150217905550565b6060611ca3826120bf565b611ce2576040517f08c379a0000000000000000000000000000000000000000000000000000000008152600401611cd99061401c565b60405180910390fd5b6000600183611cf191906141ed565b905060a160009054906101000a900460ff16611d9a5760a08054611d14906143c2565b80601f0160208091040260200160405190810160405280929190818152602001828054611d40906143c2565b8015611d8d5780601f10611d6257610100808354040283529160200191611d8d565b820191906000526020600020905b815481529060010190602001808311611d7057829003601f168201915b5050505050915050611e14565b6000609f8054611da9906143c2565b905011611dc55760405180602001604052806000815250611e10565b609f611dd082612c5e565b604051602001611de1929190613df9565b604051602081830303815290604052604051602001611e009190613dd7565b6040516020818303038152906040525b9150505b919050565b611e216120b7565b73ffffffffffffffffffffffffffffffffffffffff16611e3f611640565b73ffffffffffffffffffffffffffffffffffffffff1614611e95576040517f08c379a0000000000000000000000000000000000000000000000000000000008152600401611e8c90613ffc565b60405180910390fd5b60a160019054906101000a900460ff161560a160016101000a81548160ff021916908315150217905550565b6000606c60008473ffffffffffffffffffffffffffffffffffffffff1673ffffffffffffffffffffffffffffffffffffffff16815260200190815260200160002060008373ffffffffffffffffffffffffffffffffffffffff1673ffffffffffffffffffffffffffffffffffffffff16815260200190815260200160002060009054906101000a900460ff16905092915050565b611f5d6120b7565b73ffffffffffffffffffffffffffffffffffffffff16611f7b611640565b73ffffffffffffffffffffffffffffffffffffffff1614611fd1576040517f08c379a0000000000000000000000000000000000000000000000000000000008152600401611fc890613ffc565b60405180910390fd5b600073ffffffffffffffffffffffffffffffffffffffff168173ffffffffffffffffffffffffffffffffffffffff161415612041576040517f08c379a000000000000000000000000000000000000000000000000000000000815260040161203890613efc565b60405180910390fd5b61204a8161293e565b50565b60007f01ffc9a7000000000000000000000000000000000000000000000000000000007bffffffffffffffffffffffffffffffffffffffffffffffffffffffff1916827bffffffffffffffffffffffffffffffffffffffffffffffffffffffff1916149050919050565b600033905090565b6000816120ca6121bf565b111580156120d9575060655482105b8015612106575060696000838152602001908152602001600020600001601c9054906101000a900460ff16155b9050919050565b82606b600084815260200190815260200160002060006101000a81548173ffffffffffffffffffffffffffffffffffffffff021916908373ffffffffffffffffffffffffffffffffffffffff160217905550818373ffffffffffffffffffffffffffffffffffffffff168273ffffffffffffffffffffffffffffffffffffffff167f8c5be1e5ebec7d5bd14f71427d1e84f3dd0314c0f7b2291e5b200ac8c7c3b92560405160405180910390a4505050565b600090565b60006121cf826126af565b90508373ffffffffffffffffffffffffffffffffffffffff16816000015173ffffffffffffffffffffffffffffffffffffffff161461223a576040517fa114810000000000000000000000000000000000000000000000000000000000815260040160405180910390fd5b60008473ffffffffffffffffffffffffffffffffffffffff1661225b6120b7565b73ffffffffffffffffffffffffffffffffffffffff16148061228a5750612289856122846120b7565b611ec1565b5b806122cf57506122986120b7565b73ffffffffffffffffffffffffffffffffffffffff166122b784610b2f565b73ffffffffffffffffffffffffffffffffffffffff16145b905080612308576040517f59c896be00000000000000000000000000000000000000000000000000000000815260040160405180910390fd5b600073ffffffffffffffffffffffffffffffffffffffff168473ffffffffffffffffffffffffffffffffffffffff16141561236f576040517fea553b3400000000000000000000000000000000000000000000000000000000815260040160405180910390fd5b61237c8585856001612e0b565b6123886000848761210d565b6001606a60008773ffffffffffffffffffffffffffffffffffffffff1673ffffffffffffffffffffffffffffffffffffffff16815260200190815260200160002060000160008282829054906101000a900467ffffffffffffffff160392506101000a81548167ffffffffffffffff021916908367ffffffffffffffff1602179055506001606a60008673ffffffffffffffffffffffffffffffffffffffff1673ffffffffffffffffffffffffffffffffffffffff16815260200190815260200160002060000160008282829054906101000a900467ffffffffffffffff160192506101000a81548167ffffffffffffffff021916908367ffffffffffffffff1602179055506000606960008581526020019081526020016000209050848160000160006101000a81548173ffffffffffffffffffffffffffffffffffffffff021916908373ffffffffffffffffffffffffffffffffffffffff160217905550428160000160146101000a81548167ffffffffffffffff021916908367ffffffffffffffff16021790555060006001850190506000606960008381526020019081526020016000209050600073ffffffffffffffffffffffffffffffffffffffff168160000160009054906101000a900473ffffffffffffffffffffffffffffffffffffffff1673ffffffffffffffffffffffffffffffffffffffff16141561260857606554821461260757878160000160006101000a81548173ffffffffffffffffffffffffffffffffffffffff021916908373ffffffffffffffffffffffffffffffffffffffff16021790555084602001518160000160146101000a81548167ffffffffffffffff021916908367ffffffffffffffff1602179055505b5b505050828473ffffffffffffffffffffffffffffffffffffffff168673ffffffffffffffffffffffffffffffffffffffff167fddf252ad1be2c89b69c2b068fc378daa952ba7f163c4a11628f55a4df523b3ef60405160405180910390a46126738585856001612e11565b5050505050565b6000826126878584612e17565b1490509392505050565b6126ab828260405180602001604052806000815250612eb2565b5050565b6126b76134c2565b6000829050806126c56121bf565b111580156126d4575060655481105b15612907576000606960008381526020019081526020016000206040518060600160405290816000820160009054906101000a900473ffffffffffffffffffffffffffffffffffffffff1673ffffffffffffffffffffffffffffffffffffffff1673ffffffffffffffffffffffffffffffffffffffff1681526020016000820160149054906101000a900467ffffffffffffffff1667ffffffffffffffff1667ffffffffffffffff16815260200160008201601c9054906101000a900460ff1615151515815250509050806040015161290557600073ffffffffffffffffffffffffffffffffffffffff16816000015173ffffffffffffffffffffffffffffffffffffffff16146127e9578092505050612939565b5b60011561290457818060019003925050606960008381526020019081526020016000206040518060600160405290816000820160009054906101000a900473ffffffffffffffffffffffffffffffffffffffff1673ffffffffffffffffffffffffffffffffffffffff1673ffffffffffffffffffffffffffffffffffffffff1681526020016000820160149054906101000a900467ffffffffffffffff1667ffffffffffffffff1667ffffffffffffffff16815260200160008201601c9054906101000a900460ff1615151515815250509050600073ffffffffffffffffffffffffffffffffffffffff16816000015173ffffffffffffffffffffffffffffffffffffffff16146128ff578092505050612939565b6127ea565b5b505b6040517fdf2d9b4200000000000000000000000000000000000000000000000000000000815260040160405180910390fd5b919050565b6000606d60009054906101000a900473ffffffffffffffffffffffffffffffffffffffff16905081606d60006101000a81548173ffffffffffffffffffffffffffffffffffffffff021916908373ffffffffffffffffffffffffffffffffffffffff1602179055508173ffffffffffffffffffffffffffffffffffffffff168173ffffffffffffffffffffffffffffffffffffffff167f8be0079c531659141344cd1fd0a4f28419497f9722a3daafe3b4186f6b6457e060405160405180910390a35050565b6000612a0f30612adb565b15905090565b600060019054906101000a900460ff16612a64576040517f08c379a0000000000000000000000000000000000000000000000000000000008152600401612a5b9061403c565b60405180910390fd5b612a6e8282612ec4565b612a76612f53565b612a7e612fa4565b5050565b600060019054906101000a900460ff16612ad1576040517f08c379a0000000000000000000000000000000000000000000000000000000008152600401612ac89061403c565b60405180910390fd5b612ad9612ff5565b565b6000808273ffffffffffffffffffffffffffffffffffffffff163b119050919050565b60008373ffffffffffffffffffffffffffffffffffffffff1663150b7a02612b246120b7565b8786866040518563ffffffff1660e01b8152600401612b469493929190613e38565b602060405180830381600087803b158015612b6057600080fd5b505af1925050508015612b9157506040513d601f19601f82011682018060405250810190612b8e9190613953565b60015b612c0b573d8060008114612bc1576040519150601f19603f3d011682016040523d82523d6000602084013e612bc6565b606091505b50600081511415612c03576040517fd1a57ed600000000000000000000000000000000000000000000000000000000815260040160405180910390fd5b805181602001fd5b63150b7a0260e01b7bffffffffffffffffffffffffffffffffffffffffffffffffffffffff1916817bffffffffffffffffffffffffffffffffffffffffffffffffffffffff191614915050949350505050565b60606000821415612ca6576040518060400160405280600181526020017f30000000000000000000000000000000000000000000000000000000000000008152509050612e06565b600082905060005b60008214612cd8578080612cc190614425565b915050600a82612cd19190614243565b9150612cae565b60008167ffffffffffffffff811115612d1a577f4e487b7100000000000000000000000000000000000000000000000000000000600052604160045260246000fd5b6040519080825280601f01601f191660200182016040528015612d4c5781602001600182028036833780820191505090505b5090505b60008514612dff57600182612d6591906142ce565b9150600a85612d749190614492565b6030612d8091906141ed565b60f81b818381518110612dbc577f4e487b7100000000000000000000000000000000000000000000000000000000600052603260045260246000fd5b60200101907effffffffffffffffffffffffffffffffffffffffffffffffffffffffffffff1916908160001a905350600a85612df89190614243565b9450612d50565b8093505050505b919050565b50505050565b50505050565b60008082905060005b8451811015612ea7576000858281518110612e64577f4e487b7100000000000000000000000000000000000000000000000000000000600052603260045260246000fd5b60200260200101519050808311612e8657612e7f8382613056565b9250612e93565b612e908184613056565b92505b508080612e9f90614425565b915050612e20565b508091505092915050565b612ebf838383600161306d565b505050565b600060019054906101000a900460ff16612f13576040517f08c379a0000000000000000000000000000000000000000000000000000000008152600401612f0a9061403c565b60405180910390fd5b8160679080519060200190612f2992919061343c565b508060689080519060200190612f4092919061343c565b50612f496121bf565b6065819055505050565b600060019054906101000a900460ff16612fa2576040517f08c379a0000000000000000000000000000000000000000000000000000000008152600401612f999061403c565b60405180910390fd5b565b600060019054906101000a900460ff16612ff3576040517f08c379a0000000000000000000000000000000000000000000000000000000008152600401612fea9061403c565b60405180910390fd5b565b600060019054906101000a900460ff16613044576040517f08c379a000000000000000000000000000000000000000000000000000000000815260040161303b9061403c565b60405180910390fd5b61305461304f6120b7565b61293e565b565b600082600052816020526040600020905092915050565b60006065549050600073ffffffffffffffffffffffffffffffffffffffff168573ffffffffffffffffffffffffffffffffffffffff1614156130db576040517f2e07630000000000000000000000000000000000000000000000000000000000815260040160405180910390fd5b6000841415613116576040517fb562e8dd00000000000000000000000000000000000000000000000000000000815260040160405180910390fd5b6131236000868387612e0b565b83606a60008773ffffffffffffffffffffffffffffffffffffffff1673ffffffffffffffffffffffffffffffffffffffff16815260200190815260200160002060000160008282829054906101000a900467ffffffffffffffff160192506101000a81548167ffffffffffffffff021916908367ffffffffffffffff16021790555083606a60008773ffffffffffffffffffffffffffffffffffffffff1673ffffffffffffffffffffffffffffffffffffffff16815260200190815260200160002060000160088282829054906101000a900467ffffffffffffffff160192506101000a81548167ffffffffffffffff021916908367ffffffffffffffff160217905550846069600083815260200190815260200160002060000160006101000a81548173ffffffffffffffffffffffffffffffffffffffff021916908373ffffffffffffffffffffffffffffffffffffffff160217905550426069600083815260200190815260200160002060000160146101000a81548167ffffffffffffffff021916908367ffffffffffffffff1602179055506000819050600085820190508380156132ed57506132ec8773ffffffffffffffffffffffffffffffffffffffff16612adb565b5b156133b3575b818773ffffffffffffffffffffffffffffffffffffffff16600073ffffffffffffffffffffffffffffffffffffffff167fddf252ad1be2c89b69c2b068fc378daa952ba7f163c4a11628f55a4df523b3ef60405160405180910390a46133626000888480600101955088612afe565b613398576040517fd1a57ed600000000000000000000000000000000000000000000000000000000815260040160405180910390fd5b808214156132f35782606554146133ae57600080fd5b61341f565b5b818060010192508773ffffffffffffffffffffffffffffffffffffffff16600073ffffffffffffffffffffffffffffffffffffffff167fddf252ad1be2c89b69c2b068fc378daa952ba7f163c4a11628f55a4df523b3ef60405160405180910390a4808214156133b4575b8160658190555050506134356000868387612e11565b5050505050565b828054613448906143c2565b90600052602060002090601f01602090048101928261346a57600085556134b1565b82601f1061348357805160ff19168380011785556134b1565b828001600101855582156134b1579182015b828111156134b0578251825591602001919060010190613495565b5b5090506134be9190613505565b5090565b6040518060600160405280600073ffffffffffffffffffffffffffffffffffffffff168152602001600067ffffffffffffffff1681526020016000151581525090565b5b8082111561351e576000816000905550600101613506565b5090565b6000613535613530846140fc565b6140d7565b9050808382526020820190508285602086028201111561355457600080fd5b60005b85811015613584578161356a888261365e565b845260208401935060208301925050600181019050613557565b5050509392505050565b60006135a161359c84614128565b6140d7565b9050828152602081018484840111156135b957600080fd5b6135c4848285614380565b509392505050565b60006135df6135da84614159565b6140d7565b9050828152602081018484840111156135f757600080fd5b613602848285614380565b509392505050565b60008135905061361981614983565b92915050565b600082601f83011261363057600080fd5b8135613640848260208601613522565b91505092915050565b6000813590506136588161499a565b92915050565b60008135905061366d816149b1565b92915050565b600081359050613682816149c8565b92915050565b600081519050613697816149c8565b92915050565b600082601f8301126136ae57600080fd5b81356136be84826020860161358e565b91505092915050565b600082601f8301126136d857600080fd5b81356136e88482602086016135cc565b91505092915050565b600081359050613700816149df565b92915050565b60006020828403121561371857600080fd5b60006137268482850161360a565b91505092915050565b6000806040838503121561374257600080fd5b60006137508582860161360a565b92505060206137618582860161360a565b9150509250929050565b60008060006060848603121561378057600080fd5b600061378e8682870161360a565b935050602061379f8682870161360a565b92505060406137b0868287016136f1565b9150509250925092565b600080600080608085870312156137d057600080fd5b60006137de8782880161360a565b94505060206137ef8782880161360a565b9350506040613800878288016136f1565b925050606085013567ffffffffffffffff81111561381d57600080fd5b6138298782880161369d565b91505092959194509250565b6000806040838503121561384857600080fd5b60006138568582860161360a565b925050602061386785828601613649565b9150509250929050565b6000806040838503121561388457600080fd5b60006138928582860161360a565b92505060206138a3858286016136f1565b9150509250929050565b600080604083850312156138c057600080fd5b600083013567ffffffffffffffff8111156138da57600080fd5b6138e68582860161361f565b92505060206138f7858286016136f1565b9150509250929050565b60006020828403121561391357600080fd5b60006139218482850161365e565b91505092915050565b60006020828403121561393c57600080fd5b600061394a84828501613673565b91505092915050565b60006020828403121561396557600080fd5b600061397384828501613688565b91505092915050565b60006020828403121561398e57600080fd5b600082013567ffffffffffffffff8111156139a857600080fd5b6139b4848285016136c7565b91505092915050565b6000602082840312156139cf57600080fd5b60006139dd848285016136f1565b91505092915050565b6139ef81614302565b82525050565b613a06613a0182614302565b61446e565b82525050565b613a1581614314565b82525050565b613a2481614320565b82525050565b6000613a358261419f565b613a3f81856141b5565b9350613a4f81856020860161438f565b613a588161457f565b840191505092915050565b6000613a6e8261419f565b613a7881856141c6565b9350613a8881856020860161438f565b80840191505092915050565b6000613a9f826141aa565b613aa981856141d1565b9350613ab981856020860161438f565b613ac28161457f565b840191505092915050565b6000613ad8826141aa565b613ae281856141e2565b9350613af281856020860161438f565b80840191505092915050565b60008154613b0b816143c2565b613b1581866141e2565b94506001821660008114613b305760018114613b4157613b74565b60ff19831686528186019350613b74565b613b4a8561418a565b60005b83811015613b6c57815481890152600182019150602081019050613b4d565b838801955050505b50505092915050565b6000613b8a6016836141d1565b9150613b958261459d565b602082019050919050565b6000613bad6026836141d1565b9150613bb8826145c6565b604082019050919050565b6000613bd0601e836141d1565b9150613bdb82614615565b602082019050919050565b6000613bf3602d836141d1565b9150613bfe8261463e565b604082019050919050565b6000613c166025836141d1565b9150613c218261468d565b604082019050919050565b6000613c39602e836141d1565b9150613c44826146dc565b604082019050919050565b6000613c5c6024836141d1565b9150613c678261472b565b604082019050919050565b6000613c7f601e836141d1565b9150613c8a8261477a565b602082019050919050565b6000613ca26005836141e2565b9150613cad826147a3565b600582019050919050565b6000613cc5601a836141d1565b9150613cd0826147cc565b602082019050919050565b6000613ce86020836141d1565b9150613cf3826147f5565b602082019050919050565b6000613d0b602f836141d1565b9150613d168261481e565b604082019050919050565b6000613d2e602b836141d1565b9150613d398261486d565b604082019050919050565b6000613d516022836141d1565b9150613d5c826148bc565b604082019050919050565b6000613d746021836141d1565b9150613d7f8261490b565b604082019050919050565b6000613d976018836141d1565b9150613da28261495a565b602082019050919050565b613db681614376565b82525050565b6000613dc882846139f5565b60148201915081905092915050565b6000613de38284613a63565b9150613dee82613c95565b915081905092915050565b6000613e058285613afe565b9150613e118284613acd565b91508190509392505050565b6000602082019050613e3260008301846139e6565b92915050565b6000608082019050613e4d60008301876139e6565b613e5a60208301866139e6565b613e676040830185613dad565b8181036060830152613e798184613a2a565b905095945050505050565b6000602082019050613e996000830184613a0c565b92915050565b6000602082019050613eb46000830184613a1b565b92915050565b60006020820190508181036000830152613ed48184613a94565b905092915050565b60006020820190508181036000830152613ef581613b7d565b9050919050565b60006020820190508181036000830152613f1581613ba0565b9050919050565b60006020820190508181036000830152613f3581613bc3565b9050919050565b60006020820190508181036000830152613f5581613be6565b9050919050565b60006020820190508181036000830152613f7581613c09565b9050919050565b60006020820190508181036000830152613f9581613c2c565b9050919050565b60006020820190508181036000830152613fb581613c4f565b9050919050565b60006020820190508181036000830152613fd581613c72565b9050919050565b60006020820190508181036000830152613ff581613cb8565b9050919050565b6000602082019050818103600083015261401581613cdb565b9050919050565b6000602082019050818103600083015261403581613cfe565b9050919050565b6000602082019050818103600083015261405581613d21565b9050919050565b6000602082019050818103600083015261407581613d44565b9050919050565b6000602082019050818103600083015261409581613d67565b9050919050565b600060208201905081810360008301526140b581613d8a565b9050919050565b60006020820190506140d16000830184613dad565b92915050565b60006140e16140f2565b90506140ed82826143f4565b919050565b6000604051905090565b600067ffffffffffffffff82111561411757614116614550565b5b602082029050602081019050919050565b600067ffffffffffffffff82111561414357614142614550565b5b61414c8261457f565b9050602081019050919050565b600067ffffffffffffffff82111561417457614173614550565b5b61417d8261457f565b9050602081019050919050565b60008190508160005260206000209050919050565b600081519050919050565b600081519050919050565b600082825260208201905092915050565b600081905092915050565b600082825260208201905092915050565b600081905092915050565b60006141f882614376565b915061420383614376565b9250827fffffffffffffffffffffffffffffffffffffffffffffffffffffffffffffffff03821115614238576142376144c3565b5b828201905092915050565b600061424e82614376565b915061425983614376565b925082614269576142686144f2565b5b828204905092915050565b600061427f82614376565b915061428a83614376565b9250817fffffffffffffffffffffffffffffffffffffffffffffffffffffffffffffffff04831182151516156142c3576142c26144c3565b5b828202905092915050565b60006142d982614376565b91506142e483614376565b9250828210156142f7576142f66144c3565b5b828203905092915050565b600061430d82614356565b9050919050565b60008115159050919050565b6000819050919050565b60007fffffffff0000000000000000000000000000000000000000000000000000000082169050919050565b600073ffffffffffffffffffffffffffffffffffffffff82169050919050565b6000819050919050565b82818337600083830152505050565b60005b838110156143ad578082015181840152602081019050614392565b838111156143bc576000848401525b50505050565b600060028204905060018216806143da57607f821691505b602082108114156143ee576143ed614521565b5b50919050565b6143fd8261457f565b810181811067ffffffffffffffff8211171561441c5761441b614550565b5b80604052505050565b600061443082614376565b91507fffffffffffffffffffffffffffffffffffffffffffffffffffffffffffffffff821415614463576144626144c3565b5b600182019050919050565b600061447982614480565b9050919050565b600061448b82614590565b9050919050565b600061449d82614376565b91506144a883614376565b9250826144b8576144b76144f2565b5b828206905092915050565b7f4e487b7100000000000000000000000000000000000000000000000000000000600052601160045260246000fd5b7f4e487b7100000000000000000000000000000000000000000000000000000000600052601260045260246000fd5b7f4e487b7100000000000000000000000000000000000000000000000000000000600052602260045260246000fd5b7f4e487b7100000000000000000000000000000000000000000000000000000000600052604160045260246000fd5b6000601f19601f8301169050919050565b60008160601b9050919050565b7f426f78203a3a204e6f7420596574204163746976652e00000000000000000000600082015250565b7f4f776e61626c653a206e6577206f776e657220697320746865207a65726f206160008201527f6464726573730000000000000000000000000000000000000000000000000000602082015250565b7f426f78203a3a20416c7265616479206d696e74656420332074696d6573210000600082015250565b7f426f78203a3a2043616e6e6f74206d696e74206265796f6e642077686974656c60008201527f697374206d6178206d696e742100000000000000000000000000000000000000602082015250565b7f426f78203a3a2043616e6e6f742062652063616c6c6564206279206120636f6e60008201527f7472616374000000000000000000000000000000000000000000000000000000602082015250565b7f496e697469616c697a61626c653a20636f6e747261637420697320616c72656160008201527f647920696e697469616c697a6564000000000000000000000000000000000000602082015250565b7f426f78203a3a2043616e6e6f74206d696e74206265796f6e64206d617820737560008201527f70706c7900000000000000000000000000000000000000000000000000000000602082015250565b7f426f78203a3a20596f7520617265206e6f742077686974656c69737465640000600082015250565b7f2e6a736f6e000000000000000000000000000000000000000000000000000000600082015250565b7f426f78203a3a204d696e74696e67206973206f6e205061757365000000000000600082015250565b7f4f776e61626c653a2063616c6c6572206973206e6f7420746865206f776e6572600082015250565b7f4552433732314d657461646174613a2055524920717565727920666f72206e6f60008201527f6e6578697374656e7420746f6b656e0000000000000000000000000000000000602082015250565b7f496e697469616c697a61626c653a20636f6e7472616374206973206e6f74206960008201527f6e697469616c697a696e67000000000000000000000000000000000000000000602082015250565b7f426f78203a3a205061796d656e742069732062656c6f7720746865207072696360008201527f6520000000000000000000000000000000000000000000000000000000000000602082015250565b7f426f78203a3a205061796d656e742069732062656c6f7720746865207072696360008201527f6500000000000000000000000000000000000000000000000000000000000000602082015250565b7f426f78203a3a204265796f6e64204d617820537570706c790000000000000000600082015250565b61498c81614302565b811461499757600080fd5b50565b6149a381614314565b81146149ae57600080fd5b50565b6149ba81614320565b81146149c557600080fd5b50565b6149d18161432a565b81146149dc57600080fd5b50565b6149e881614376565b81146149f357600080fd5b5056fea264697066735822122002bcf41b5ff9c67d6798830db615d72fe2c43e00f39c1d69d15e1bded356020d64736f6c63430008040033",
  "linkReferences": {},
  "deployedLinkReferences": {}
}